{
  "_format": "hh-sol-artifact-1",
  "contractName": "FixedRatePaymaster",
  "sourceName": "contracts/FixedRatePaymaster.sol",
  "abi": [
    {
      "inputs": [
        {
          "internalType": "address",
          "name": "_entryPoint",
          "type": "address"
        },
        {
          "internalType": "address",
          "name": "_token",
          "type": "address"
        },
        {
          "internalType": "uint256",
          "name": "_rate",
          "type": "uint256"
        }
      ],
      "stateMutability": "nonpayable",
      "type": "constructor"
    },
    {
      "inputs": [
        {
          "internalType": "address",
          "name": "owner",
          "type": "address"
        }
      ],
      "name": "OwnableInvalidOwner",
      "type": "error"
    },
    {
      "inputs": [
        {
          "internalType": "address",
          "name": "account",
          "type": "address"
        }
      ],
      "name": "OwnableUnauthorizedAccount",
      "type": "error"
    },
    {
      "inputs": [
        {
          "internalType": "address",
          "name": "token",
          "type": "address"
        }
      ],
      "name": "SafeERC20FailedOperation",
      "type": "error"
    },
    {
      "anonymous": false,
      "inputs": [
        {
          "indexed": true,
          "internalType": "address",
          "name": "previousOwner",
          "type": "address"
        },
        {
          "indexed": true,
          "internalType": "address",
          "name": "newOwner",
          "type": "address"
        }
      ],
      "name": "OwnershipTransferStarted",
      "type": "event"
    },
    {
      "anonymous": false,
      "inputs": [
        {
          "indexed": true,
          "internalType": "address",
          "name": "previousOwner",
          "type": "address"
        },
        {
          "indexed": true,
          "internalType": "address",
          "name": "newOwner",
          "type": "address"
        }
      ],
      "name": "OwnershipTransferred",
      "type": "event"
    },
    {
      "anonymous": false,
      "inputs": [
        {
          "indexed": true,
          "internalType": "address",
          "name": "sender",
          "type": "address"
        },
        {
          "indexed": false,
          "internalType": "uint256",
          "name": "amount",
          "type": "uint256"
        },
        {
          "indexed": false,
          "internalType": "uint256",
          "name": "gasUsed",
          "type": "uint256"
        }
      ],
      "name": "TokensCharged",
      "type": "event"
    },
    {
      "anonymous": false,
      "inputs": [
        {
          "indexed": true,
          "internalType": "address",
          "name": "to",
          "type": "address"
        },
        {
          "indexed": false,
          "internalType": "uint256",
          "name": "amount",
          "type": "uint256"
        }
      ],
      "name": "TokensWithdrawn",
      "type": "event"
    },
    {
      "inputs": [],
      "name": "acceptOwnership",
      "outputs": [],
      "stateMutability": "nonpayable",
      "type": "function"
    },
    {
      "inputs": [
        {
          "internalType": "uint32",
          "name": "unstakeDelaySec",
          "type": "uint32"
        }
      ],
      "name": "addStake",
      "outputs": [],
      "stateMutability": "payable",
      "type": "function"
    },
    {
      "inputs": [],
      "name": "deposit",
      "outputs": [],
      "stateMutability": "payable",
      "type": "function"
    },
    {
      "inputs": [],
      "name": "entryPoint",
      "outputs": [
        {
          "internalType": "contract IEntryPoint",
          "name": "",
          "type": "address"
        }
      ],
      "stateMutability": "view",
      "type": "function"
    },
    {
      "inputs": [],
      "name": "getDeposit",
      "outputs": [
        {
          "internalType": "uint256",
          "name": "",
          "type": "uint256"
        }
      ],
      "stateMutability": "view",
      "type": "function"
    },
    {
      "inputs": [],
      "name": "owner",
      "outputs": [
        {
          "internalType": "address",
          "name": "",
          "type": "address"
        }
      ],
      "stateMutability": "view",
      "type": "function"
    },
    {
      "inputs": [],
      "name": "pendingOwner",
      "outputs": [
        {
          "internalType": "address",
          "name": "",
          "type": "address"
        }
      ],
      "stateMutability": "view",
      "type": "function"
    },
    {
      "inputs": [
        {
          "internalType": "enum IPaymaster.PostOpMode",
          "name": "mode",
          "type": "uint8"
        },
        {
          "internalType": "bytes",
          "name": "context",
          "type": "bytes"
        },
        {
          "internalType": "uint256",
          "name": "actualGasCost",
          "type": "uint256"
        },
        {
          "internalType": "uint256",
          "name": "actualUserOpFeePerGas",
          "type": "uint256"
        }
      ],
      "name": "postOp",
      "outputs": [],
      "stateMutability": "nonpayable",
      "type": "function"
    },
    {
      "inputs": [],
      "name": "rate",
      "outputs": [
        {
          "internalType": "uint256",
          "name": "",
          "type": "uint256"
        }
      ],
      "stateMutability": "view",
      "type": "function"
    },
    {
      "inputs": [],
      "name": "renounceOwnership",
      "outputs": [],
      "stateMutability": "nonpayable",
      "type": "function"
    },
    {
      "inputs": [],
      "name": "token",
      "outputs": [
        {
          "internalType": "contract IERC20",
          "name": "",
          "type": "address"
        }
      ],
      "stateMutability": "view",
      "type": "function"
    },
    {
      "inputs": [
        {
          "internalType": "address",
          "name": "newOwner",
          "type": "address"
        }
      ],
      "name": "transferOwnership",
      "outputs": [],
      "stateMutability": "nonpayable",
      "type": "function"
    },
    {
      "inputs": [],
      "name": "unlockStake",
      "outputs": [],
      "stateMutability": "nonpayable",
      "type": "function"
    },
    {
      "inputs": [
        {
          "components": [
            {
              "internalType": "address",
              "name": "sender",
              "type": "address"
            },
            {
              "internalType": "uint256",
              "name": "nonce",
              "type": "uint256"
            },
            {
              "internalType": "bytes",
              "name": "initCode",
              "type": "bytes"
            },
            {
              "internalType": "bytes",
              "name": "callData",
              "type": "bytes"
            },
            {
              "internalType": "bytes32",
              "name": "accountGasLimits",
              "type": "bytes32"
            },
            {
              "internalType": "uint256",
              "name": "preVerificationGas",
              "type": "uint256"
            },
            {
              "internalType": "bytes32",
              "name": "gasFees",
              "type": "bytes32"
            },
            {
              "internalType": "bytes",
              "name": "paymasterAndData",
              "type": "bytes"
            },
            {
              "internalType": "bytes",
              "name": "signature",
              "type": "bytes"
            }
          ],
          "internalType": "struct PackedUserOperation",
          "name": "userOp",
          "type": "tuple"
        },
        {
          "internalType": "bytes32",
          "name": "userOpHash",
          "type": "bytes32"
        },
        {
          "internalType": "uint256",
          "name": "maxCost",
          "type": "uint256"
        }
      ],
      "name": "validatePaymasterUserOp",
      "outputs": [
        {
          "internalType": "bytes",
          "name": "context",
          "type": "bytes"
        },
        {
          "internalType": "uint256",
          "name": "validationData",
          "type": "uint256"
        }
      ],
      "stateMutability": "nonpayable",
      "type": "function"
    },
    {
      "inputs": [
        {
          "internalType": "address payable",
          "name": "withdrawAddress",
          "type": "address"
        }
      ],
      "name": "withdrawStake",
      "outputs": [],
      "stateMutability": "nonpayable",
      "type": "function"
    },
    {
      "inputs": [
        {
          "internalType": "address payable",
          "name": "withdrawAddress",
          "type": "address"
        },
        {
          "internalType": "uint256",
          "name": "amount",
          "type": "uint256"
        }
      ],
      "name": "withdrawTo",
      "outputs": [],
      "stateMutability": "nonpayable",
      "type": "function"
    },
    {
      "inputs": [
        {
          "internalType": "address",
          "name": "to",
          "type": "address"
        }
      ],
      "name": "withdrawTokens",
      "outputs": [],
      "stateMutability": "nonpayable",
      "type": "function"
    },
    {
      "stateMutability": "payable",
      "type": "receive"
    }
  ],
  "bytecode": "0x60e060405234801561001057600080fd5b50604051611d2e380380611d2e833981810160405281019061003291906102d5565b8233600073ffffffffffffffffffffffffffffffffffffffff168173ffffffffffffffffffffffffffffffffffffffff16036100a65760006040517f1e4fbdf700000000000000000000000000000000000000000000000000000000815260040161009d9190610337565b60405180910390fd5b6100b58161013e60201b60201c565b506100c58161017560201b60201c565b8073ffffffffffffffffffffffffffffffffffffffff1660808173ffffffffffffffffffffffffffffffffffffffff1681525050508173ffffffffffffffffffffffffffffffffffffffff1660a08173ffffffffffffffffffffffffffffffffffffffff16815250508060c08181525050505050610352565b600160006101000a81549073ffffffffffffffffffffffffffffffffffffffff02191690556101728161017860201b60201c565b50565b50565b60008060009054906101000a900473ffffffffffffffffffffffffffffffffffffffff169050816000806101000a81548173ffffffffffffffffffffffffffffffffffffffff021916908373ffffffffffffffffffffffffffffffffffffffff1602179055508173ffffffffffffffffffffffffffffffffffffffff168173ffffffffffffffffffffffffffffffffffffffff167f8be0079c531659141344cd1fd0a4f28419497f9722a3daafe3b4186f6b6457e060405160405180910390a35050565b600080fd5b600073ffffffffffffffffffffffffffffffffffffffff82169050919050565b600061026c82610241565b9050919050565b61027c81610261565b811461028757600080fd5b50565b60008151905061029981610273565b92915050565b6000819050919050565b6102b28161029f565b81146102bd57600080fd5b50565b6000815190506102cf816102a9565b92915050565b6000806000606084860312156102ee576102ed61023c565b5b60006102fc8682870161028a565b935050602061030d8682870161028a565b925050604061031e868287016102c0565b9150509250925092565b61033181610261565b82525050565b600060208201905061034c6000830184610328565b92915050565b60805160a05160c05161194b6103e3600039600081816104b801528181610c330152610e770152600081816104e60152818161058701528181610a7401528181610c7901528181610d3a0152610eab015260008181610390015281816104270152818161072a01528181610756015281816107e0015281816108700152818161090f0152610b9e015261194b6000f3fe6080604052600436106101025760003560e01c80638da5cb5b11610095578063c399ec8811610064578063c399ec88146102d2578063d0e30db0146102fd578063e30c397814610307578063f2fde38b14610332578063fc0c546a1461035b57610109565b80638da5cb5b1461023c578063b0d691fe14610267578063bb9fe6bf14610292578063c23a5cea146102a957610109565b806352b7512c116100d157806352b7512c146101a7578063715018a6146101e557806379ba5097146101fc5780637c627b211461021357610109565b80630396cb601461010e578063205c28781461012a5780632c4e722e1461015357806349df728c1461017e57610109565b3661010957005b600080fd5b61012860048036038101906101239190611177565b610386565b005b34801561013657600080fd5b50610151600480360381019061014c9190611238565b61041d565b005b34801561015f57600080fd5b506101686104b6565b6040516101759190611287565b60405180910390f35b34801561018a57600080fd5b506101a560048036038101906101a091906112e0565b6104da565b005b3480156101b357600080fd5b506101ce60048036038101906101c99190611368565b61061d565b6040516101dc929190611467565b60405180910390f35b3480156101f157600080fd5b506101fa610640565b005b34801561020857600080fd5b50610211610654565b005b34801561021f57600080fd5b5061023a60048036038101906102359190611521565b6106e3565b005b34801561024857600080fd5b506102516106ff565b60405161025e91906115b8565b60405180910390f35b34801561027357600080fd5b5061027c610728565b6040516102899190611632565b60405180910390f35b34801561029e57600080fd5b506102a761074c565b005b3480156102b557600080fd5b506102d060048036038101906102cb919061164d565b6107d6565b005b3480156102de57600080fd5b506102e761086c565b6040516102f49190611287565b60405180910390f35b61030561090d565b005b34801561031357600080fd5b5061031c61099b565b60405161032991906115b8565b60405180910390f35b34801561033e57600080fd5b50610359600480360381019061035491906112e0565b6109c5565b005b34801561036757600080fd5b50610370610a72565b60405161037d919061169b565b60405180910390f35b61038e610a96565b7f000000000000000000000000000000000000000000000000000000000000000073ffffffffffffffffffffffffffffffffffffffff16630396cb6034836040518363ffffffff1660e01b81526004016103e891906116c5565b6000604051808303818588803b15801561040157600080fd5b505af1158015610415573d6000803e3d6000fd5b505050505050565b610425610a96565b7f000000000000000000000000000000000000000000000000000000000000000073ffffffffffffffffffffffffffffffffffffffff1663205c287883836040518363ffffffff1660e01b81526004016104809291906116ef565b600060405180830381600087803b15801561049a57600080fd5b505af11580156104ae573d6000803e3d6000fd5b505050505050565b7f000000000000000000000000000000000000000000000000000000000000000081565b6104e2610a96565b60007f000000000000000000000000000000000000000000000000000000000000000073ffffffffffffffffffffffffffffffffffffffff166370a08231306040518263ffffffff1660e01b815260040161053d91906115b8565b602060405180830381865afa15801561055a573d6000803e3d6000fd5b505050506040513d601f19601f8201168201806040525081019061057e919061172d565b90506105cb82827f000000000000000000000000000000000000000000000000000000000000000073ffffffffffffffffffffffffffffffffffffffff16610b1d9092919063ffffffff16565b8173ffffffffffffffffffffffffffffffffffffffff167f6352c5382c4a4578e712449ca65e83cdb392d045dfcf1cad9615189db2da244b826040516106119190611287565b60405180910390a25050565b60606000610629610b9c565b610634858585610c2c565b91509150935093915050565b610648610a96565b6106526000610e27565b565b600061065e610e58565b90508073ffffffffffffffffffffffffffffffffffffffff1661067f61099b565b73ffffffffffffffffffffffffffffffffffffffff16146106d757806040517f118cdaa70000000000000000000000000000000000000000000000000000000081526004016106ce91906115b8565b60405180910390fd5b6106e081610e27565b50565b6106eb610b9c565b6106f88585858585610e60565b5050505050565b60008060009054906101000a900473ffffffffffffffffffffffffffffffffffffffff16905090565b7f000000000000000000000000000000000000000000000000000000000000000081565b610754610a96565b7f000000000000000000000000000000000000000000000000000000000000000073ffffffffffffffffffffffffffffffffffffffff1663bb9fe6bf6040518163ffffffff1660e01b8152600401600060405180830381600087803b1580156107bc57600080fd5b505af11580156107d0573d6000803e3d6000fd5b50505050565b6107de610a96565b7f000000000000000000000000000000000000000000000000000000000000000073ffffffffffffffffffffffffffffffffffffffff1663c23a5cea826040518263ffffffff1660e01b8152600401610837919061175a565b600060405180830381600087803b15801561085157600080fd5b505af1158015610865573d6000803e3d6000fd5b5050505050565b60007f000000000000000000000000000000000000000000000000000000000000000073ffffffffffffffffffffffffffffffffffffffff166370a08231306040518263ffffffff1660e01b81526004016108c791906115b8565b602060405180830381865afa1580156108e4573d6000803e3d6000fd5b505050506040513d601f19601f82011682018060405250810190610908919061172d565b905090565b7f000000000000000000000000000000000000000000000000000000000000000073ffffffffffffffffffffffffffffffffffffffff1663b760faf934306040518363ffffffff1660e01b815260040161096791906115b8565b6000604051808303818588803b15801561098057600080fd5b505af1158015610994573d6000803e3d6000fd5b5050505050565b6000600160009054906101000a900473ffffffffffffffffffffffffffffffffffffffff16905090565b6109cd610a96565b80600160006101000a81548173ffffffffffffffffffffffffffffffffffffffff021916908373ffffffffffffffffffffffffffffffffffffffff1602179055508073ffffffffffffffffffffffffffffffffffffffff16610a2d6106ff565b73ffffffffffffffffffffffffffffffffffffffff167f38d16b8cac22d99fc7c124b9cd0de2d3fa1faef420bfe791d8c362d765e2270060405160405180910390a350565b7f000000000000000000000000000000000000000000000000000000000000000081565b610a9e610e58565b73ffffffffffffffffffffffffffffffffffffffff16610abc6106ff565b73ffffffffffffffffffffffffffffffffffffffff1614610b1b57610adf610e58565b6040517f118cdaa7000000000000000000000000000000000000000000000000000000008152600401610b1291906115b8565b60405180910390fd5b565b610b97838473ffffffffffffffffffffffffffffffffffffffff1663a9059cbb8585604051602401610b50929190611775565b604051602081830303815290604052915060e01b6020820180517bffffffffffffffffffffffffffffffffffffffffffffffffffffffff8381831617835250505050610f49565b505050565b7f000000000000000000000000000000000000000000000000000000000000000073ffffffffffffffffffffffffffffffffffffffff163373ffffffffffffffffffffffffffffffffffffffff1614610c2a576040517f08c379a0000000000000000000000000000000000000000000000000000000008152600401610c21906117fb565b60405180910390fd5b565b60606000807f000000000000000000000000000000000000000000000000000000000000000084610c5d919061184a565b90506000866000016020810190610c7491906112e0565b9050817f000000000000000000000000000000000000000000000000000000000000000073ffffffffffffffffffffffffffffffffffffffff1663dd62ed3e83306040518363ffffffff1660e01b8152600401610cd292919061188c565b602060405180830381865afa158015610cef573d6000803e3d6000fd5b505050506040513d601f19601f82011682018060405250810190610d13919061172d565b1015610d375760016040518060200160405280600081525090935093505050610e1f565b817f000000000000000000000000000000000000000000000000000000000000000073ffffffffffffffffffffffffffffffffffffffff166370a08231836040518263ffffffff1660e01b8152600401610d9191906115b8565b602060405180830381865afa158015610dae573d6000803e3d6000fd5b505050506040513d601f19601f82011682018060405250810190610dd2919061172d565b1015610df65760016040518060200160405280600081525090935093505050610e1f565b80604051602001610e0791906115b8565b60405160208183030381529060405260009350935050505b935093915050565b600160006101000a81549073ffffffffffffffffffffffffffffffffffffffff0219169055610e5581610feb565b50565b600033905090565b60008484810190610e71919061164d565b905060007f000000000000000000000000000000000000000000000000000000000000000084610ea1919061184a565b9050610ef08230837f000000000000000000000000000000000000000000000000000000000000000073ffffffffffffffffffffffffffffffffffffffff166110af909392919063ffffffff16565b8173ffffffffffffffffffffffffffffffffffffffff167fffd0b669a1dd6cd4e81d5fa668229de53f1912281efd7c8374dfc2208164962f8286604051610f389291906118b5565b60405180910390a250505050505050565b600080602060008451602086016000885af180610f6c576040513d6000823e3d81fd5b3d925060005191505060008214610f87576001811415610fa3565b60008473ffffffffffffffffffffffffffffffffffffffff163b145b15610fe557836040517f5274afe7000000000000000000000000000000000000000000000000000000008152600401610fdc91906115b8565b60405180910390fd5b50505050565b60008060009054906101000a900473ffffffffffffffffffffffffffffffffffffffff169050816000806101000a81548173ffffffffffffffffffffffffffffffffffffffff021916908373ffffffffffffffffffffffffffffffffffffffff1602179055508173ffffffffffffffffffffffffffffffffffffffff168173ffffffffffffffffffffffffffffffffffffffff167f8be0079c531659141344cd1fd0a4f28419497f9722a3daafe3b4186f6b6457e060405160405180910390a35050565b61112b848573ffffffffffffffffffffffffffffffffffffffff166323b872dd8686866040516024016110e4939291906118de565b604051602081830303815290604052915060e01b6020820180517bffffffffffffffffffffffffffffffffffffffffffffffffffffffff8381831617835250505050610f49565b50505050565b600080fd5b600080fd5b600063ffffffff82169050919050565b6111548161113b565b811461115f57600080fd5b50565b6000813590506111718161114b565b92915050565b60006020828403121561118d5761118c611131565b5b600061119b84828501611162565b91505092915050565b600073ffffffffffffffffffffffffffffffffffffffff82169050919050565b60006111cf826111a4565b9050919050565b6111df816111c4565b81146111ea57600080fd5b50565b6000813590506111fc816111d6565b92915050565b6000819050919050565b61121581611202565b811461122057600080fd5b50565b6000813590506112328161120c565b92915050565b6000806040838503121561124f5761124e611131565b5b600061125d858286016111ed565b925050602061126e85828601611223565b9150509250929050565b61128181611202565b82525050565b600060208201905061129c6000830184611278565b92915050565b60006112ad826111a4565b9050919050565b6112bd816112a2565b81146112c857600080fd5b50565b6000813590506112da816112b4565b92915050565b6000602082840312156112f6576112f5611131565b5b6000611304848285016112cb565b91505092915050565b600080fd5b600061012082840312156113295761132861130d565b5b81905092915050565b6000819050919050565b61134581611332565b811461135057600080fd5b50565b6000813590506113628161133c565b92915050565b60008060006060848603121561138157611380611131565b5b600084013567ffffffffffffffff81111561139f5761139e611136565b5b6113ab86828701611312565b93505060206113bc86828701611353565b92505060406113cd86828701611223565b9150509250925092565b600081519050919050565b600082825260208201905092915050565b60005b838110156114115780820151818401526020810190506113f6565b60008484015250505050565b6000601f19601f8301169050919050565b6000611439826113d7565b61144381856113e2565b93506114538185602086016113f3565b61145c8161141d565b840191505092915050565b60006040820190508181036000830152611481818561142e565b90506114906020830184611278565b9392505050565b600381106114a457600080fd5b50565b6000813590506114b681611497565b92915050565b600080fd5b600080fd5b600080fd5b60008083601f8401126114e1576114e06114bc565b5b8235905067ffffffffffffffff8111156114fe576114fd6114c1565b5b60208301915083600182028301111561151a576115196114c6565b5b9250929050565b60008060008060006080868803121561153d5761153c611131565b5b600061154b888289016114a7565b955050602086013567ffffffffffffffff81111561156c5761156b611136565b5b611578888289016114cb565b9450945050604061158b88828901611223565b925050606061159c88828901611223565b9150509295509295909350565b6115b2816112a2565b82525050565b60006020820190506115cd60008301846115a9565b92915050565b6000819050919050565b60006115f86115f36115ee846111a4565b6115d3565b6111a4565b9050919050565b600061160a826115dd565b9050919050565b600061161c826115ff565b9050919050565b61162c81611611565b82525050565b60006020820190506116476000830184611623565b92915050565b60006020828403121561166357611662611131565b5b6000611671848285016111ed565b91505092915050565b6000611685826115ff565b9050919050565b6116958161167a565b82525050565b60006020820190506116b0600083018461168c565b92915050565b6116bf8161113b565b82525050565b60006020820190506116da60008301846116b6565b92915050565b6116e9816111c4565b82525050565b600060408201905061170460008301856116e0565b6117116020830184611278565b9392505050565b6000815190506117278161120c565b92915050565b60006020828403121561174357611742611131565b5b600061175184828501611718565b91505092915050565b600060208201905061176f60008301846116e0565b92915050565b600060408201905061178a60008301856115a9565b6117976020830184611278565b9392505050565b600082825260208201905092915050565b7f53656e646572206e6f7420456e747279506f696e740000000000000000000000600082015250565b60006117e560158361179e565b91506117f0826117af565b602082019050919050565b60006020820190508181036000830152611814816117d8565b9050919050565b7f4e487b7100000000000000000000000000000000000000000000000000000000600052601160045260246000fd5b600061185582611202565b915061186083611202565b925082820261186e81611202565b915082820484148315176118855761188461181b565b5b5092915050565b60006040820190506118a160008301856115a9565b6118ae60208301846115a9565b9392505050565b60006040820190506118ca6000830185611278565b6118d76020830184611278565b9392505050565b60006060820190506118f360008301866115a9565b61190060208301856115a9565b61190d6040830184611278565b94935050505056fea26469706673582212206dc34b5d3188e64bbfa3fe9534fe05e6eb8b0cc1eec4b4d92f6824d2c09c64a364736f6c634300081c0033",
  "linkReferences": {},
  "deployedLinkReferences": {}
}